{
  "_format": "hh-sol-artifact-1",
  "contractName": "ConfidentialLocker",
  "sourceName": "contracts/ConfidentialLocker.sol",
  "abi": [
    {
      "inputs": [
        {
          "internalType": "address",
          "name": "_coprocessor",
          "type": "address"
        },
        {
          "internalType": "address",
          "name": "_lockerPass",
          "type": "address"
        },
        {
          "internalType": "address",
          "name": "_complianceRegistry",
          "type": "address"
        }
      ],
      "stateMutability": "nonpayable",
      "type": "constructor"
    },
    {
      "inputs": [
        {
          "internalType": "address",
          "name": "owner",
          "type": "address"
        }
      ],
      "name": "OwnableInvalidOwner",
      "type": "error"
    },
    {
      "inputs": [
        {
          "internalType": "address",
          "name": "account",
          "type": "address"
        }
      ],
      "name": "OwnableUnauthorizedAccount",
      "type": "error"
    },
    {
      "inputs": [
        {
          "internalType": "address",
          "name": "token",
          "type": "address"
        }
      ],
      "name": "SafeERC20FailedOperation",
      "type": "error"
    },
    {
      "anonymous": false,
      "inputs": [
        {
          "indexed": true,
          "internalType": "uint256",
          "name": "lockId",
          "type": "uint256"
        },
        {
          "indexed": true,
          "internalType": "address",
          "name": "user",
          "type": "address"
        },
        {
          "indexed": false,
          "internalType": "uint256",
          "name": "nftId",
          "type": "uint256"
        },
        {
          "indexed": false,
          "internalType": "address",
          "name": "token",
          "type": "address"
        },
        {
          "indexed": false,
          "internalType": "uint256",
          "name": "amount",
          "type": "uint256"
        }
      ],
      "name": "LockCreated",
      "type": "event"
    },
    {
      "anonymous": false,
      "inputs": [
        {
          "indexed": true,
          "internalType": "uint256",
          "name": "lockId",
          "type": "uint256"
        },
        {
          "indexed": true,
          "internalType": "address",
          "name": "user",
          "type": "address"
        },
        {
          "indexed": false,
          "internalType": "uint256",
          "name": "amount",
          "type": "uint256"
        }
      ],
      "name": "LockWithdrawn",
      "type": "event"
    },
    {
      "anonymous": false,
      "inputs": [
        {
          "indexed": true,
          "internalType": "address",
          "name": "previousOwner",
          "type": "address"
        },
        {
          "indexed": true,
          "internalType": "address",
          "name": "newOwner",
          "type": "address"
        }
      ],
      "name": "OwnershipTransferred",
      "type": "event"
    },
    {
      "anonymous": false,
      "inputs": [
        {
          "indexed": true,
          "internalType": "uint256",
          "name": "requestId",
          "type": "uint256"
        },
        {
          "indexed": true,
          "internalType": "uint256",
          "name": "lockId",
          "type": "uint256"
        },
        {
          "indexed": true,
          "internalType": "address",
          "name": "user",
          "type": "address"
        }
      ],
      "name": "WithdrawRequested",
      "type": "event"
    },
    {
      "anonymous": false,
      "inputs": [
        {
          "indexed": true,
          "internalType": "uint256",
          "name": "requestId",
          "type": "uint256"
        },
        {
          "indexed": true,
          "internalType": "uint256",
          "name": "lockId",
          "type": "uint256"
        },
        {
          "indexed": false,
          "internalType": "bool",
          "name": "success",
          "type": "bool"
        }
      ],
      "name": "WithdrawResult",
      "type": "event"
    },
    {
      "inputs": [],
      "name": "complianceRegistry",
      "outputs": [
        {
          "internalType": "contract IComplianceRegistry",
          "name": "",
          "type": "address"
        }
      ],
      "stateMutability": "view",
      "type": "function"
    },
    {
      "inputs": [],
      "name": "coprocessor",
      "outputs": [
        {
          "internalType": "contract ICoprocessor",
          "name": "",
          "type": "address"
        }
      ],
      "stateMutability": "view",
      "type": "function"
    },
    {
      "inputs": [
        {
          "internalType": "uint256",
          "name": "lockId",
          "type": "uint256"
        }
      ],
      "name": "getLock",
      "outputs": [
        {
          "internalType": "address",
          "name": "user",
          "type": "address"
        },
        {
          "internalType": "address",
          "name": "token",
          "type": "address"
        },
        {
          "internalType": "uint256",
          "name": "amount",
          "type": "uint256"
        },
        {
          "internalType": "uint256",
          "name": "nftId",
          "type": "uint256"
        },
        {
          "internalType": "bool",
          "name": "withdrawn",
          "type": "bool"
        }
      ],
      "stateMutability": "view",
      "type": "function"
    },
    {
      "inputs": [
        {
          "internalType": "uint256",
          "name": "lockId",
          "type": "uint256"
        }
      ],
      "name": "isLockActive",
      "outputs": [
        {
          "internalType": "bool",
          "name": "",
          "type": "bool"
        }
      ],
      "stateMutability": "view",
      "type": "function"
    },
    {
      "inputs": [
        {
          "internalType": "address",
          "name": "token",
          "type": "address"
        },
        {
          "internalType": "uint256",
          "name": "amount",
          "type": "uint256"
        },
        {
          "internalType": "bytes",
          "name": "encryptedUnlockTime",
          "type": "bytes"
        },
        {
          "internalType": "bytes",
          "name": "encryptedKPI",
          "type": "bytes"
        }
      ],
      "name": "lock",
      "outputs": [
        {
          "internalType": "uint256",
          "name": "lockId",
          "type": "uint256"
        }
      ],
      "stateMutability": "payable",
      "type": "function"
    },
    {
      "inputs": [],
      "name": "lockerPass",
      "outputs": [
        {
          "internalType": "contract ILockerPass",
          "name": "",
          "type": "address"
        }
      ],
      "stateMutability": "view",
      "type": "function"
    },
    {
      "inputs": [
        {
          "internalType": "uint256",
          "name": "",
          "type": "uint256"
        }
      ],
      "name": "locks",
      "outputs": [
        {
          "internalType": "address",
          "name": "user",
          "type": "address"
        },
        {
          "internalType": "address",
          "name": "token",
          "type": "address"
        },
        {
          "internalType": "uint256",
          "name": "amount",
          "type": "uint256"
        },
        {
          "internalType": "bytes",
          "name": "encryptedUnlockTime",
          "type": "bytes"
        },
        {
          "internalType": "bytes",
          "name": "encryptedKPI",
          "type": "bytes"
        },
        {
          "internalType": "uint256",
          "name": "nftId",
          "type": "uint256"
        },
        {
          "internalType": "bool",
          "name": "withdrawn",
          "type": "bool"
        }
      ],
      "stateMutability": "view",
      "type": "function"
    },
    {
      "inputs": [],
      "name": "nextLockId",
      "outputs": [
        {
          "internalType": "uint256",
          "name": "",
          "type": "uint256"
        }
      ],
      "stateMutability": "view",
      "type": "function"
    },
    {
      "inputs": [],
      "name": "owner",
      "outputs": [
        {
          "internalType": "address",
          "name": "",
          "type": "address"
        }
      ],
      "stateMutability": "view",
      "type": "function"
    },
    {
      "inputs": [],
      "name": "renounceOwnership",
      "outputs": [],
      "stateMutability": "nonpayable",
      "type": "function"
    },
    {
      "inputs": [
        {
          "internalType": "address",
          "name": "newOwner",
          "type": "address"
        }
      ],
      "name": "transferOwnership",
      "outputs": [],
      "stateMutability": "nonpayable",
      "type": "function"
    },
    {
      "inputs": [
        {
          "internalType": "uint256",
          "name": "lockId",
          "type": "uint256"
        },
        {
          "internalType": "bytes",
          "name": "currentKPI",
          "type": "bytes"
        }
      ],
      "name": "withdraw",
      "outputs": [],
      "stateMutability": "nonpayable",
      "type": "function"
    },
    {
      "inputs": [
        {
          "internalType": "uint256",
          "name": "requestId",
          "type": "uint256"
        },
        {
          "internalType": "bool",
          "name": "result",
          "type": "bool"
        }
      ],
      "name": "withdrawCallback",
      "outputs": [],
      "stateMutability": "nonpayable",
      "type": "function"
    },
    {
      "inputs": [
        {
          "internalType": "uint256",
          "name": "",
          "type": "uint256"
        }
      ],
      "name": "withdrawRequests",
      "outputs": [
        {
          "internalType": "uint256",
          "name": "lockId",
          "type": "uint256"
        },
        {
          "internalType": "address",
          "name": "user",
          "type": "address"
        },
        {
          "internalType": "bool",
          "name": "pending",
          "type": "bool"
        }
      ],
      "stateMutability": "view",
      "type": "function"
    },
    {
      "stateMutability": "payable",
      "type": "receive"
    }
  ],
  "bytecode": "0x60806040523480156200001157600080fd5b50604051620017b1380380620017b1833981016040819052620000349162000117565b33806200005b57604051631e4fbdf760e01b81526000600482015260240160405180910390fd5b6200006681620000aa565b50600180546001600160a01b039485166001600160a01b03199182161790915560028054938516938216939093179092556003805491909316911617905562000161565b600080546001600160a01b038381166001600160a01b0319831681178455604051919092169283917f8be0079c531659141344cd1fd0a4f28419497f9722a3daafe3b4186f6b6457e09190a35050565b80516001600160a01b03811681146200011257600080fd5b919050565b6000806000606084860312156200012d57600080fd5b6200013884620000fa565b92506200014860208501620000fa565b91506200015860408501620000fa565b90509250925092565b61164080620001716000396000f3fe6080604052600436106100e15760003560e01c8063992a7dfb1161007f578063d68f4dd111610059578063d68f4dd114610284578063f2fde38b14610314578063f4dadc6114610334578063fdf0fa1c1461036757600080fd5b8063992a7dfb146101d6578063ad15180014610244578063cac89c5c1461026457600080fd5b80636518a0b3116100bb5780636518a0b31461016d578063715018a6146101835780637382084a146101985780638da5cb5b146101b857600080fd5b8063030ba25d146100ed578063229cf5a71461010f5780634daf25181461014c57600080fd5b366100e857005b600080fd5b3480156100f957600080fd5b5061010d61010836600461110c565b610397565b005b34801561011b57600080fd5b5060025461012f906001600160a01b031681565b6040516001600160a01b0390911681526020015b60405180910390f35b61015f61015a36600461116d565b610692565b604051908152602001610143565b34801561017957600080fd5b5061015f60065481565b34801561018f57600080fd5b5061010d610a95565b3480156101a457600080fd5b5060015461012f906001600160a01b031681565b3480156101c457600080fd5b506000546001600160a01b031661012f565b3480156101e257600080fd5b5061021f6101f13660046111f9565b600560205260009081526040902080546001909101546001600160a01b03811690600160a01b900460ff1683565b604080519384526001600160a01b039092166020840152151590820152606001610143565b34801561025057600080fd5b5061010d61025f366004611220565b610aa9565b34801561027057600080fd5b5060035461012f906001600160a01b031681565b34801561029057600080fd5b506102df61029f3660046111f9565b600090815260046020526040902080546001820154600283015460058401546006909401546001600160a01b039384169593909216939092909160ff1690565b604080516001600160a01b0396871681529590941660208601529284019190915260608301521515608082015260a001610143565b34801561032057600080fd5b5061010d61032f366004611250565b610d70565b34801561034057600080fd5b5061035461034f3660046111f9565b610dae565b60405161014397969594939291906112b3565b34801561037357600080fd5b506103876103823660046111f9565b610f0b565b6040519015158152602001610143565b600083815260046020526040902080546001600160a01b031633146103f45760405162461bcd60e51b815260206004820152600e60248201526d2737ba103637b1b59037bbb732b960911b60448201526064015b60405180910390fd5b600681015460ff161561043d5760405162461bcd60e51b815260206004820152601160248201527020b63932b0b23c903bb4ba34323930bbb760791b60448201526064016103eb565b60008160020154116104815760405162461bcd60e51b815260206004820152600d60248201526c4c6f636b20697320656d70747960981b60448201526064016103eb565b60025460058201546040516331a9108f60e11b8152600481019190915233916001600160a01b031690636352211e90602401602060405180830381865afa1580156104d0573d6000803e3d6000fd5b505050506040513d601f19601f820116820180604052508101906104f49190611314565b6001600160a01b03161461054a5760405162461bcd60e51b815260206004820152601860248201527f4d75737420686f6c64204c6f636b657250617373204e4654000000000000000060448201526064016103eb565b600084338360030184600401878760405160200161056d969594939291906113e8565b60408051601f198184030181529082905260015463c48fc9f760e01b83529092506000916001600160a01b039091169063c48fc9f7906105b99085906215a2a360eb1b9060040161145c565b6020604051808303816000875af11580156105d8573d6000803e3d6000fd5b505050506040513d601f19601f820116820180604052508101906105fc9190611487565b604080516060810182528881523360208083018281526001848601818152600088815260059094528684209551865591519401805491511515600160a01b026001600160a81b03199092166001600160a01b0395909516949094171790925591519293509091889184917f685c1147da646b5bc5ba762d09b271f6000dd78815aa6b0add21faaced0da0549190a4505050505050565b60035460405163babcc53960e01b81523360048201526000916001600160a01b03169063babcc53990602401602060405180830381865afa1580156106db573d6000803e3d6000fd5b505050506040513d601f19601f820116820180604052508101906106ff91906114a0565b61073e5760405162461bcd60e51b815260206004820152601060248201526f155cd95c881b9bdd08185b1b1bddd95960821b60448201526064016103eb565b60006001600160a01b0388166107af57600034116107a85760405162461bcd60e51b815260206004820152602160248201527f45544820616d6f756e74206d7573742062652067726561746572207468616e206044820152600360fc1b60648201526084016103eb565b5034610870565b6000871161080b5760405162461bcd60e51b815260206004820152602360248201527f546f6b656e20616d6f756e74206d75737420626520677265617465722074686160448201526206e20360ec1b60648201526084016103eb565b34156108595760405162461bcd60e51b815260206004820152601f60248201527f43616e6e6f742073656e6420455448207769746820746f6b656e206c6f636b0060448201526064016103eb565b50856108706001600160a01b038916333084610f38565b6002546040516335313c2160e11b81523360048201526000916001600160a01b031690636a627842906024016020604051808303816000875af11580156108bb573d6000803e3d6000fd5b505050506040513d601f19601f820116820180604052508101906108df9190611487565b6006805491925060006108f1836114bd565b9190505592506040518060e00160405280336001600160a01b031681526020018a6001600160a01b0316815260200183815260200188888080601f016020809104026020016040519081016040528093929190818152602001838380828437600092019190915250505090825250604080516020601f8901819004810282018101909252878152918101919088908890819084018382808284376000920182905250938552505050602080830185905260409283018290528682526004815290829020835181546001600160a01b03199081166001600160a01b039283161783559285015160018301805490941691161790915590820151600282015560608201516003820190610a02908261154a565b5060808201516004820190610a17908261154a565b5060a0820151600582015560c0909101516006909101805460ff1916911515919091179055604080518281526001600160a01b038b166020820152908101839052339084907f883410474e1de9968dbb3cc76c354b6a22898f6ef977a10bc4eef42bbb622cb29060600160405180910390a350509695505050505050565b610a9d610f9f565b610aa76000610fcc565b565b6001546001600160a01b03163314610b035760405162461bcd60e51b815260206004820152601e60248201527f4f6e6c7920636f70726f636573736f722063616e2063616c6c206261636b000060448201526064016103eb565b60008281526005602052604090206001810154600160a01b900460ff16610b625760405162461bcd60e51b815260206004820152601360248201527252657175657374206e6f742070656e64696e6760681b60448201526064016103eb565b60018101805460ff60a01b1916905580546000818152600460209081526040918290209151851515815291929186917f3bb7e0ffc6c77f2fcf4fd996c228f6609b38679e56ecc10c0b61130a2cc94e09910160405180910390a3828015610bce5750600681015460ff16155b15610d6a5760068101805460ff19166001908117909155600280830154848301549284015491546005850154604051630852cd8d60e31b815292946001600160a01b03908116948116939216916342966c6891610c319160040190815260200190565b600060405180830381600087803b158015610c4b57600080fd5b505af1158015610c5f573d6000803e3d6000fd5b5050506001600160a01b0382169050610d11576000826001600160a01b03168460405160006040518083038185875af1925050503d8060008114610cbf576040519150601f19603f3d011682016040523d82523d6000602084013e610cc4565b606091505b5050905080610d0b5760405162461bcd60e51b8152602060048201526013602482015272115512081d1c985b9cd9995c8819985a5b1959606a1b60448201526064016103eb565b50610d25565b610d256001600160a01b038216838561101c565b84546040518481526001600160a01b03841691907f6baa91e5ba0dcbc42566c1f08a8910123a6e9068897374384c73a18f66052c4d9060200160405180910390a35050505b50505050565b610d78610f9f565b6001600160a01b038116610da257604051631e4fbdf760e01b8152600060048201526024016103eb565b610dab81610fcc565b50565b60046020526000908152604090208054600182015460028301546003840180546001600160a01b039485169594909316939192610dea90611331565b80601f0160208091040260200160405190810160405280929190818152602001828054610e1690611331565b8015610e635780601f10610e3857610100808354040283529160200191610e63565b820191906000526020600020905b815481529060010190602001808311610e4657829003601f168201915b505050505090806004018054610e7890611331565b80601f0160208091040260200160405190810160405280929190818152602001828054610ea490611331565b8015610ef15780601f10610ec657610100808354040283529160200191610ef1565b820191906000526020600020905b815481529060010190602001808311610ed457829003601f168201915b50505050600583015460069093015491929160ff16905087565b6000818152600460205260408120600281015415801590610f315750600681015460ff16155b9392505050565b6040516001600160a01b038481166024830152838116604483015260648201839052610d6a9186918216906323b872dd906084015b604051602081830303815290604052915060e01b6020820180516001600160e01b038381831617835250505050611052565b6000546001600160a01b03163314610aa75760405163118cdaa760e01b81523360048201526024016103eb565b600080546001600160a01b038381166001600160a01b0319831681178455604051919092169283917f8be0079c531659141344cd1fd0a4f28419497f9722a3daafe3b4186f6b6457e09190a35050565b6040516001600160a01b0383811660248301526044820183905261104d91859182169063a9059cbb90606401610f6d565b505050565b600080602060008451602086016000885af180611075576040513d6000823e3d81fd5b50506000513d9150811561108d57806001141561109a565b6001600160a01b0384163b155b15610d6a57604051635274afe760e01b81526001600160a01b03851660048201526024016103eb565b60008083601f8401126110d557600080fd5b50813567ffffffffffffffff8111156110ed57600080fd5b60208301915083602082850101111561110557600080fd5b9250929050565b60008060006040848603121561112157600080fd5b83359250602084013567ffffffffffffffff81111561113f57600080fd5b61114b868287016110c3565b9497909650939450505050565b6001600160a01b0381168114610dab57600080fd5b6000806000806000806080878903121561118657600080fd5b863561119181611158565b955060208701359450604087013567ffffffffffffffff808211156111b557600080fd5b6111c18a838b016110c3565b909650945060608901359150808211156111da57600080fd5b506111e789828a016110c3565b979a9699509497509295939492505050565b60006020828403121561120b57600080fd5b5035919050565b8015158114610dab57600080fd5b6000806040838503121561123357600080fd5b82359150602083013561124581611212565b809150509250929050565b60006020828403121561126257600080fd5b8135610f3181611158565b6000815180845260005b8181101561129357602081850181015186830182015201611277565b506000602082860101526020601f19601f83011685010191505092915050565b6001600160a01b038881168252871660208201526040810186905260e0606082018190526000906112e69083018761126d565b82810360808401526112f8818761126d565b60a0840195909552505090151560c09091015295945050505050565b60006020828403121561132657600080fd5b8151610f3181611158565b600181811c9082168061134557607f821691505b60208210810361136557634e487b7160e01b600052602260045260246000fd5b50919050565b6000815461137881611331565b80855260206001838116801561139557600181146113af576113dd565b60ff1985168884015283151560051b8801830195506113dd565b866000528260002060005b858110156113d55781548a82018601529083019084016113ba565b890184019650505b505050505092915050565b8681526001600160a01b038616602082015260a0604082018190526000906114129083018761136b565b8281036060840152611424818761136b565b90508281036080840152838152838560208301376000602085830101526020601f19601f860116820101915050979650505050505050565b60408152600061146f604083018561126d565b905063ffffffff60e01b831660208301529392505050565b60006020828403121561149957600080fd5b5051919050565b6000602082840312156114b257600080fd5b8151610f3181611212565b6000600182016114dd57634e487b7160e01b600052601160045260246000fd5b5060010190565b634e487b7160e01b600052604160045260246000fd5b601f82111561104d576000816000526020600020601f850160051c810160208610156115235750805b601f850160051c820191505b818110156115425782815560010161152f565b505050505050565b815167ffffffffffffffff811115611564576115646114e4565b611578816115728454611331565b846114fa565b602080601f8311600181146115ad57600084156115955750858301515b600019600386901b1c1916600185901b178555611542565b600085815260208120601f198616915b828110156115dc578886015182559484019460019091019084016115bd565b50858210156115fa5787850151600019600388901b60f8161c191681555b5050505050600190811b0190555056fea26469706673582212206b7283a5efd95c3c8c95214e76c8e17a51fc92c616809af4c64b99daf7a6b4ff64736f6c63430008180033",
  "linkReferences": {},
  "deployedLinkReferences": {}
}