{
  "_format": "hh-sol-artifact-1",
  "contractName": "ConfidentialLocker",
  "sourceName": "contracts/ConfidentialLocker.sol",
  "abi": [
    {
      "inputs": [
        {
          "internalType": "address",
          "name": "_coprocessor",
          "type": "address"
        }
      ],
      "stateMutability": "nonpayable",
      "type": "constructor"
    },
    {
      "inputs": [
        {
          "internalType": "address",
          "name": "owner",
          "type": "address"
        }
      ],
      "name": "OwnableInvalidOwner",
      "type": "error"
    },
    {
      "inputs": [
        {
          "internalType": "address",
          "name": "account",
          "type": "address"
        }
      ],
      "name": "OwnableUnauthorizedAccount",
      "type": "error"
    },
    {
      "anonymous": false,
      "inputs": [
        {
          "indexed": true,
          "internalType": "address",
          "name": "user",
          "type": "address"
        },
        {
          "indexed": false,
          "internalType": "uint256",
          "name": "amount",
          "type": "uint256"
        }
      ],
      "name": "Deposit",
      "type": "event"
    },
    {
      "anonymous": false,
      "inputs": [
        {
          "indexed": true,
          "internalType": "address",
          "name": "previousOwner",
          "type": "address"
        },
        {
          "indexed": true,
          "internalType": "address",
          "name": "newOwner",
          "type": "address"
        }
      ],
      "name": "OwnershipTransferred",
      "type": "event"
    },
    {
      "anonymous": false,
      "inputs": [
        {
          "indexed": true,
          "internalType": "uint256",
          "name": "requestId",
          "type": "uint256"
        },
        {
          "indexed": true,
          "internalType": "address",
          "name": "user",
          "type": "address"
        }
      ],
      "name": "UnlockRequested",
      "type": "event"
    },
    {
      "anonymous": false,
      "inputs": [
        {
          "indexed": true,
          "internalType": "uint256",
          "name": "requestId",
          "type": "uint256"
        },
        {
          "indexed": false,
          "internalType": "bool",
          "name": "success",
          "type": "bool"
        }
      ],
      "name": "UnlockResult",
      "type": "event"
    },
    {
      "anonymous": false,
      "inputs": [
        {
          "indexed": true,
          "internalType": "address",
          "name": "user",
          "type": "address"
        },
        {
          "indexed": false,
          "internalType": "uint256",
          "name": "amount",
          "type": "uint256"
        }
      ],
      "name": "Withdrawal",
      "type": "event"
    },
    {
      "inputs": [
        {
          "internalType": "address",
          "name": "",
          "type": "address"
        }
      ],
      "name": "balances",
      "outputs": [
        {
          "internalType": "uint256",
          "name": "",
          "type": "uint256"
        }
      ],
      "stateMutability": "view",
      "type": "function"
    },
    {
      "inputs": [],
      "name": "coprocessor",
      "outputs": [
        {
          "internalType": "contract ICoprocessor",
          "name": "",
          "type": "address"
        }
      ],
      "stateMutability": "view",
      "type": "function"
    },
    {
      "inputs": [],
      "name": "deposit",
      "outputs": [],
      "stateMutability": "payable",
      "type": "function"
    },
    {
      "inputs": [],
      "name": "encryptedMinKPIThreshold",
      "outputs": [
        {
          "internalType": "bytes",
          "name": "",
          "type": "bytes"
        }
      ],
      "stateMutability": "view",
      "type": "function"
    },
    {
      "inputs": [],
      "name": "owner",
      "outputs": [
        {
          "internalType": "address",
          "name": "",
          "type": "address"
        }
      ],
      "stateMutability": "view",
      "type": "function"
    },
    {
      "inputs": [],
      "name": "renounceOwnership",
      "outputs": [],
      "stateMutability": "nonpayable",
      "type": "function"
    },
    {
      "inputs": [
        {
          "internalType": "bytes",
          "name": "encryptedKPI",
          "type": "bytes"
        }
      ],
      "name": "requestUnlock",
      "outputs": [],
      "stateMutability": "nonpayable",
      "type": "function"
    },
    {
      "inputs": [
        {
          "internalType": "uint256",
          "name": "",
          "type": "uint256"
        }
      ],
      "name": "requests",
      "outputs": [
        {
          "internalType": "address",
          "name": "user",
          "type": "address"
        },
        {
          "internalType": "uint256",
          "name": "amount",
          "type": "uint256"
        },
        {
          "internalType": "bool",
          "name": "pending",
          "type": "bool"
        }
      ],
      "stateMutability": "view",
      "type": "function"
    },
    {
      "inputs": [
        {
          "internalType": "bytes",
          "name": "_encryptedThreshold",
          "type": "bytes"
        }
      ],
      "name": "setMinKPIThreshold",
      "outputs": [],
      "stateMutability": "nonpayable",
      "type": "function"
    },
    {
      "inputs": [
        {
          "internalType": "address",
          "name": "newOwner",
          "type": "address"
        }
      ],
      "name": "transferOwnership",
      "outputs": [],
      "stateMutability": "nonpayable",
      "type": "function"
    },
    {
      "inputs": [
        {
          "internalType": "uint256",
          "name": "requestId",
          "type": "uint256"
        },
        {
          "internalType": "bool",
          "name": "result",
          "type": "bool"
        }
      ],
      "name": "unlockCallback",
      "outputs": [],
      "stateMutability": "nonpayable",
      "type": "function"
    }
  ],
  "bytecode": "0x608060405234801561001057600080fd5b50604051610d42380380610d4283398101604081905261002f916100d4565b338061005557604051631e4fbdf760e01b81526000600482015260240160405180910390fd5b61005e81610084565b50600180546001600160a01b0319166001600160a01b0392909216919091179055610104565b600080546001600160a01b038381166001600160a01b0319831681178455604051919092169283917f8be0079c531659141344cd1fd0a4f28419497f9722a3daafe3b4186f6b6457e09190a35050565b6000602082840312156100e657600080fd5b81516001600160a01b03811681146100fd57600080fd5b9392505050565b610c2f806101136000396000f3fe60806040526004361061009c5760003560e01c80637bf40764116100645780637bf407641461017657806381d12c58146101965780638da5cb5b14610206578063d0e30db014610224578063d11789731461022c578063f2fde38b1461024c57600080fd5b80631b5c345a146100a157806327e235e3146100cc5780636e37738914610107578063715018a6146101295780637382084a1461013e575b600080fd5b3480156100ad57600080fd5b506100b661026c565b6040516100c3919061085c565b60405180910390f35b3480156100d857600080fd5b506100f96100e7366004610876565b60026020526000908152604090205481565b6040519081526020016100c3565b34801561011357600080fd5b5061012761012236600461089f565b6102fa565b005b34801561013557600080fd5b506101276104f1565b34801561014a57600080fd5b5060015461015e906001600160a01b031681565b6040516001600160a01b0390911681526020016100c3565b34801561018257600080fd5b506101276101913660046108d4565b610505565b3480156101a257600080fd5b506101df6101b1366004610946565b6003602052600090815260409020805460018201546002909201546001600160a01b03909116919060ff1683565b604080516001600160a01b03909416845260208401929092521515908201526060016100c3565b34801561021257600080fd5b506000546001600160a01b031661015e565b61012761069b565b34801561023857600080fd5b506101276102473660046108d4565b610746565b34801561025857600080fd5b50610127610267366004610876565b61075b565b600480546102799061095f565b80601f01602080910402602001604051908101604052809291908181526020018280546102a59061095f565b80156102f25780601f106102c7576101008083540402835291602001916102f2565b820191906000526020600020905b8154815290600101906020018083116102d557829003601f168201915b505050505081565b6001546001600160a01b031633146103595760405162461bcd60e51b815260206004820152601e60248201527f4f6e6c7920636f70726f636573736f722063616e2063616c6c206261636b000060448201526064015b60405180910390fd5b6000828152600360205260409020600281015460ff166103b15760405162461bcd60e51b815260206004820152601360248201527252657175657374206e6f742070656e64696e6760681b6044820152606401610350565b60028101805460ff19169055604051821515815283907f9dd41fd874277c3e90c7f83d77813ef0016c723d3dc093805ecce34490666c809060200160405180910390a281156104ec57600181015481546001600160a01b03908116600090815260026020526040808220829055845490519192169083908381818185875af1925050503d8060008114610460576040519150601f19603f3d011682016040523d82523d6000602084013e610465565b606091505b50509050806104a85760405162461bcd60e51b815260206004820152600f60248201526e151c985b9cd9995c8819985a5b1959608a1b6044820152606401610350565b82546040518381526001600160a01b03909116907f7fcf532c15f0a6db0bd6d0e038bea71d30d808c7d98cb3bf7268a95bf5081b659060200160405180910390a250505b505050565b6104f9610799565b61050360006107c6565b565b336000908152600260205260409020548061055b5760405162461bcd60e51b81526020600482015260166024820152754e6f2062616c616e636520746f20776974686472617760501b6044820152606401610350565b600033848460046040516020016105759493929190610999565b60408051601f198184030181529082905260015463c48fc9f760e01b83529092506000916001600160a01b039091169063c48fc9f7906105c2908590636e37738960e01b90600401610a67565b6020604051808303816000875af11580156105e1573d6000803e3d6000fd5b505050506040513d601f19601f820116820180604052508101906106059190610a92565b60408051606081018252338082526020808301888152600184860181815260008881526003909452868420955186546001600160a01b0319166001600160a01b03909116178655915190850155516002909301805460ff1916931515939093179092559151929350909183917f28b4439d4f5d4535a793a541471cd78cf8bf646bd8b724548ef35880ea5a250891a35050505050565b600034116106eb5760405162461bcd60e51b815260206004820152601d60248201527f416d6f756e74206d7573742062652067726561746572207468616e20300000006044820152606401610350565b336000908152600260205260408120805434929061070a908490610aab565b909155505060405134815233907fe1fffcc4923d04b559f4d29a8bfc6cda04eb5b0d3c460751c2402c5c5cc9109c9060200160405180910390a2565b61074e610799565b60046104ec828483610b38565b610763610799565b6001600160a01b03811661078d57604051631e4fbdf760e01b815260006004820152602401610350565b610796816107c6565b50565b6000546001600160a01b031633146105035760405163118cdaa760e01b8152336004820152602401610350565b600080546001600160a01b038381166001600160a01b0319831681178455604051919092169283917f8be0079c531659141344cd1fd0a4f28419497f9722a3daafe3b4186f6b6457e09190a35050565b6000815180845260005b8181101561083c57602081850181015186830182015201610820565b506000602082860101526020601f19601f83011685010191505092915050565b60208152600061086f6020830184610816565b9392505050565b60006020828403121561088857600080fd5b81356001600160a01b038116811461086f57600080fd5b600080604083850312156108b257600080fd5b82359150602083013580151581146108c957600080fd5b809150509250929050565b600080602083850312156108e757600080fd5b823567ffffffffffffffff808211156108ff57600080fd5b818501915085601f83011261091357600080fd5b81358181111561092257600080fd5b86602082850101111561093457600080fd5b60209290920196919550909350505050565b60006020828403121561095857600080fd5b5035919050565b600181811c9082168061097357607f821691505b60208210810361099357634e487b7160e01b600052602260045260246000fd5b50919050565b60018060a01b0385168152600060206060602084015284606084015284866080850137600060808685010152601f19601f86011683016080848203016040850152600085546109e78161095f565b80608085015260a0600180841660008114610a095760018114610a2557610a55565b60ff19851660a088015260a084151560051b8801019550610a55565b8a600052602060002060005b85811015610a4c578154898201860152908301908901610a31565b880160a0019650505b50939c9b505050505050505050505050565b604081526000610a7a6040830185610816565b905063ffffffff60e01b831660208301529392505050565b600060208284031215610aa457600080fd5b5051919050565b80820180821115610acc57634e487b7160e01b600052601160045260246000fd5b92915050565b634e487b7160e01b600052604160045260246000fd5b601f8211156104ec576000816000526020600020601f850160051c81016020861015610b115750805b601f850160051c820191505b81811015610b3057828155600101610b1d565b505050505050565b67ffffffffffffffff831115610b5057610b50610ad2565b610b6483610b5e835461095f565b83610ae8565b6000601f841160018114610b985760008515610b805750838201355b600019600387901b1c1916600186901b178355610bf2565b600083815260209020601f19861690835b82811015610bc95786850135825560209485019460019092019101610ba9565b5086821015610be65760001960f88860031b161c19848701351681555b505060018560011b0183555b505050505056fea2646970667358221220f57ce1c940656448f960146d1730d6817ba75f22a896364b67a802f625b4c97864736f6c63430008180033",
  "linkReferences": {},
  "deployedLinkReferences": {}
}