{
  "_format": "hh-sol-artifact-1",
  "contractName": "MockConfidentialERC20",
  "sourceName": "contracts/MockConfidentialERC20.sol",
  "abi": [
    {
      "inputs": [
        {
          "internalType": "address",
          "name": "spender",
          "type": "address"
        },
        {
          "internalType": "euint128",
          "name": "amount",
          "type": "bytes32"
        }
      ],
      "name": "approve",
      "outputs": [
        {
          "internalType": "bool",
          "name": "",
          "type": "bool"
        }
      ],
      "stateMutability": "nonpayable",
      "type": "function"
    },
    {
      "inputs": [
        {
          "internalType": "address",
          "name": "account",
          "type": "address"
        }
      ],
      "name": "balanceOf",
      "outputs": [
        {
          "internalType": "euint128",
          "name": "",
          "type": "bytes32"
        }
      ],
      "stateMutability": "view",
      "type": "function"
    },
    {
      "inputs": [
        {
          "internalType": "address",
          "name": "to",
          "type": "address"
        },
        {
          "internalType": "uint128",
          "name": "amount",
          "type": "uint128"
        }
      ],
      "name": "mint",
      "outputs": [],
      "stateMutability": "nonpayable",
      "type": "function"
    },
    {
      "inputs": [
        {
          "internalType": "address",
          "name": "to",
          "type": "address"
        },
        {
          "internalType": "euint128",
          "name": "amount",
          "type": "bytes32"
        }
      ],
      "name": "transfer",
      "outputs": [
        {
          "internalType": "bool",
          "name": "",
          "type": "bool"
        }
      ],
      "stateMutability": "nonpayable",
      "type": "function"
    },
    {
      "inputs": [
        {
          "internalType": "address",
          "name": "from",
          "type": "address"
        },
        {
          "internalType": "address",
          "name": "to",
          "type": "address"
        },
        {
          "internalType": "euint128",
          "name": "amount",
          "type": "bytes32"
        }
      ],
      "name": "transferFrom",
      "outputs": [
        {
          "internalType": "bool",
          "name": "",
          "type": "bool"
        }
      ],
      "stateMutability": "nonpayable",
      "type": "function"
    }
  ],
  "bytecode": "0x608060405234801561001057600080fd5b506107dc806100206000396000f3fe608060405234801561001057600080fd5b50600436106100575760003560e01c80635cd2f4d31461005c57806370a08231146100a95780637d32e7bd146100e0578063b3c06f50146100f3578063be29184f14610106575b600080fd5b61009461006a366004610637565b3360009081526001602081815260408084206001600160a01b039690961684529490529290205590565b60405190151581526020015b60405180910390f35b6100d26100b7366004610661565b6001600160a01b031660009081526020819052604090205490565b6040519081526020016100a0565b6100946100ee366004610637565b61011b565b61009461010136600461067c565b610131565b6101196101143660046106b8565b610148565b005b6000610128338484610193565b50600192915050565b600061013e848484610193565b5060019392505050565b6001600160a01b0382166000908152602081905260409020546101739061016e83610247565b610263565b6001600160a01b0390921660009081526020819052604090209190915550565b6001600160a01b0383166000908152602081905260408120546101b790839061029c565b905060006101cf82846101ca6000610247565b6102ce565b6001600160a01b0386166000908152602081905260409020549091506101f59082610319565b6001600160a01b0380871660009081526020819052604080822093909355908616815220546102249082610263565b6001600160a01b0390941660009081526020819052604090209390935550505050565b600061025d826001600160801b0316600661034b565b92915050565b600082610277576102746000610247565b92505b81610289576102866000610247565b91505b610295838360006103e0565b9392505050565b6000826102b0576102ad6000610247565b92505b816102c2576102bf6000610247565b91505b61029583836000610494565b6000836102e2576102df60006104fb565b93505b826102f4576102f16000610247565b92505b81610306576103036000610247565b91505b610311848484610519565b949350505050565b60008261032d5761032a6000610247565b92505b8161033f5761033c6000610247565b91505b610295838360006105b4565b60008051602061076783398151915254604051639cd07acb60e01b8152600091600080516020610787833981519152916001600160a01b0390911690639cd07acb9061039d90879087906004016106fb565b6020604051808303816000875af11580156103bc573d6000803e3d6000fd5b505050506040513d601f19601f82011682018060405250810190610311919061072d565b60008082156103f45750600160f81b6103f8565b5060005b6000805160206107678339815191525460405163022f65e760e31b8152600080516020610787833981519152916001600160a01b03169063117b2f389061044790899089908790600401610746565b6020604051808303816000875af1158015610466573d6000803e3d6000fd5b505050506040513d601f19601f8201168201806040525081019061048a919061072d565b9695505050505050565b60008082156104a85750600160f81b6104ac565b5060005b60008051602061076783398151915254604051631d44e90160e21b8152600080516020610787833981519152916001600160a01b031690637513a4049061044790899089908790600401610746565b600061025d8261050c57600061050f565b60015b60ff16600061034b565b6000806000805160206107878339815191526001810154604051637702dcff60e01b81526004810188905260248101879052604481018690529192506001600160a01b031690637702dcff906064016020604051808303816000875af1158015610587573d6000803e3d6000fd5b505050506040513d601f19601f820116820180604052508101906105ab919061072d565b95945050505050565b60008082156105c85750600160f81b6105cc565b5060005b600080516020610767833981519152546040516303056db360e31b8152600080516020610787833981519152916001600160a01b03169063182b6d989061044790899089908790600401610746565b80356001600160a01b038116811461063257600080fd5b919050565b6000806040838503121561064a57600080fd5b6106538361061b565b946020939093013593505050565b60006020828403121561067357600080fd5b6102958261061b565b60008060006060848603121561069157600080fd5b61069a8461061b565b92506106a86020850161061b565b9150604084013590509250925092565b600080604083850312156106cb57600080fd5b6106d48361061b565b915060208301356001600160801b03811681146106f057600080fd5b809150509250929050565b828152604081016054831061072057634e487b7160e01b600052602160045260246000fd5b8260208301529392505050565b60006020828403121561073f57600080fd5b5051919050565b92835260208301919091526001600160f81b03191660408201526060019056fe9e7b61f58c47dc699ac88507c4f5bb9f121c03808c5676a8078fe583e46497019e7b61f58c47dc699ac88507c4f5bb9f121c03808c5676a8078fe583e4649700a2646970667358221220571fe7cbec7e1d72e740913c005dc217cb1581b33cf24c963fbffb95788f48f564736f6c63430008180033",
  "linkReferences": {},
  "deployedLinkReferences": {}
}