{
  "_format": "hh-sol-artifact-1",
  "contractName": "ConfidentialBuyback",
  "sourceName": "contracts/ConfidentialBuyback.sol",
  "abi": [
    {
      "inputs": [
        {
          "internalType": "address",
          "name": "_stablecoin",
          "type": "address"
        },
        {
          "internalType": "address",
          "name": "_projectToken",
          "type": "address"
        },
        {
          "internalType": "address",
          "name": "_dex",
          "type": "address"
        }
      ],
      "stateMutability": "nonpayable",
      "type": "constructor"
    },
    {
      "inputs": [
        {
          "internalType": "address",
          "name": "owner",
          "type": "address"
        }
      ],
      "name": "OwnableInvalidOwner",
      "type": "error"
    },
    {
      "inputs": [
        {
          "internalType": "address",
          "name": "account",
          "type": "address"
        }
      ],
      "name": "OwnableUnauthorizedAccount",
      "type": "error"
    },
    {
      "anonymous": false,
      "inputs": [
        {
          "indexed": false,
          "internalType": "uint256",
          "name": "timestamp",
          "type": "uint256"
        }
      ],
      "name": "BuybackExecuted",
      "type": "event"
    },
    {
      "anonymous": false,
      "inputs": [
        {
          "indexed": true,
          "internalType": "address",
          "name": "depositor",
          "type": "address"
        },
        {
          "indexed": false,
          "internalType": "uint256",
          "name": "amount",
          "type": "uint256"
        }
      ],
      "name": "FundsDeposited",
      "type": "event"
    },
    {
      "anonymous": false,
      "inputs": [
        {
          "indexed": true,
          "internalType": "address",
          "name": "previousOwner",
          "type": "address"
        },
        {
          "indexed": true,
          "internalType": "address",
          "name": "newOwner",
          "type": "address"
        }
      ],
      "name": "OwnershipTransferred",
      "type": "event"
    },
    {
      "inputs": [],
      "name": "config",
      "outputs": [
        {
          "internalType": "euint128",
          "name": "buybackAmount",
          "type": "bytes32"
        },
        {
          "internalType": "euint32",
          "name": "interval",
          "type": "bytes32"
        },
        {
          "internalType": "euint32",
          "name": "lastBuybackTime",
          "type": "bytes32"
        },
        {
          "internalType": "euint32",
          "name": "targetPrice",
          "type": "bytes32"
        },
        {
          "internalType": "bool",
          "name": "isActive",
          "type": "bool"
        }
      ],
      "stateMutability": "view",
      "type": "function"
    },
    {
      "inputs": [
        {
          "internalType": "externalEuint128",
          "name": "_buybackAmount",
          "type": "bytes32"
        },
        {
          "internalType": "bytes",
          "name": "_amountProof",
          "type": "bytes"
        },
        {
          "internalType": "externalEuint32",
          "name": "_interval",
          "type": "bytes32"
        },
        {
          "internalType": "bytes",
          "name": "_intervalProof",
          "type": "bytes"
        },
        {
          "internalType": "externalEuint32",
          "name": "_targetPrice",
          "type": "bytes32"
        },
        {
          "internalType": "bytes",
          "name": "_priceProof",
          "type": "bytes"
        }
      ],
      "name": "configureBuyback",
      "outputs": [],
      "stateMutability": "nonpayable",
      "type": "function"
    },
    {
      "inputs": [
        {
          "internalType": "externalEuint128",
          "name": "_encryptedAmount",
          "type": "bytes32"
        },
        {
          "internalType": "bytes",
          "name": "_amountProof",
          "type": "bytes"
        }
      ],
      "name": "depositEncrypted",
      "outputs": [],
      "stateMutability": "nonpayable",
      "type": "function"
    },
    {
      "inputs": [
        {
          "internalType": "uint256",
          "name": "_amount",
          "type": "uint256"
        }
      ],
      "name": "depositFunds",
      "outputs": [],
      "stateMutability": "nonpayable",
      "type": "function"
    },
    {
      "inputs": [],
      "name": "dex",
      "outputs": [
        {
          "internalType": "address",
          "name": "",
          "type": "address"
        }
      ],
      "stateMutability": "view",
      "type": "function"
    },
    {
      "inputs": [
        {
          "internalType": "uint256",
          "name": "_currentPrice",
          "type": "uint256"
        }
      ],
      "name": "executeBuyback",
      "outputs": [],
      "stateMutability": "nonpayable",
      "type": "function"
    },
    {
      "inputs": [],
      "name": "owner",
      "outputs": [
        {
          "internalType": "address",
          "name": "",
          "type": "address"
        }
      ],
      "stateMutability": "view",
      "type": "function"
    },
    {
      "inputs": [],
      "name": "projectToken",
      "outputs": [
        {
          "internalType": "address",
          "name": "",
          "type": "address"
        }
      ],
      "stateMutability": "view",
      "type": "function"
    },
    {
      "inputs": [],
      "name": "renounceOwnership",
      "outputs": [],
      "stateMutability": "nonpayable",
      "type": "function"
    },
    {
      "inputs": [],
      "name": "stablecoin",
      "outputs": [
        {
          "internalType": "address",
          "name": "",
          "type": "address"
        }
      ],
      "stateMutability": "view",
      "type": "function"
    },
    {
      "inputs": [
        {
          "internalType": "address",
          "name": "newOwner",
          "type": "address"
        }
      ],
      "name": "transferOwnership",
      "outputs": [],
      "stateMutability": "nonpayable",
      "type": "function"
    }
  ],
  "bytecode": "0x608060405234801561001057600080fd5b5060405161105938038061105983398101604081905261002f9161010d565b338061005557604051631e4fbdf760e01b81526000600482015260240160405180910390fd5b61005e816100a1565b50600680546001600160a01b039485166001600160a01b031991821617909155600780549385169382169390931790925560088054919093169116179055610150565b600080546001600160a01b038381166001600160a01b0319831681178455604051919092169283917f8be0079c531659141344cd1fd0a4f28419497f9722a3daafe3b4186f6b6457e09190a35050565b80516001600160a01b038116811461010857600080fd5b919050565b60008060006060848603121561012257600080fd5b61012b846100f1565b9250610139602085016100f1565b9150610147604085016100f1565b90509250925092565b610efa8061015f6000396000f3fe608060405234801561001057600080fd5b50600436106100a95760003560e01c806379502c551161007157806379502c551461011f5780638da5cb5b14610166578063db00a34f14610177578063dbe42bd41461018a578063e9cbd8221461019d578063f2fde38b146101b057600080fd5b80633b76594d146100ae5780634b60ce77146100c15780636869c673146100f1578063692058c214610104578063715018a614610117575b600080fd5b6100bf6100bc366004610bf8565b50565b005b6007546100d4906001600160a01b031681565b6040516001600160a01b0390911681526020015b60405180910390f35b6100bf6100ff366004610bf8565b6101c3565b6008546100d4906001600160a01b031681565b6100bf61035c565b60015460025460035460045460055461013c949392919060ff1685565b6040805195865260208601949094529284019190915260608301521515608082015260a0016100e8565b6000546001600160a01b03166100d4565b6100bf610185366004610c5a565b610370565b6100bf610198366004610d13565b610466565b6006546100d4906001600160a01b031681565b6100bf6101be366004610d5f565b610561565b60055460ff1661020f5760405162461bcd60e51b81526020600482015260126024820152714275796261636b206e6f742061637469766560701b60448201526064015b60405180910390fd5b600061021a4261059c565b9050600061023160016002015460018001546105b5565b9050600061023f83836105ee565b9050600061024c8561059c565b9050600061025f82600160030154610620565b9050600061026d8483610652565b9050600061027b6000610684565b9050600061028f83600160000154846106a3565b90506102a183896001600201546106ee565b600355600654600854604051635cd2f4d360e01b81526001600160a01b03918216600482015260248101849052911690635cd2f4d3906044016020604051808303816000875af11580156102f9573d6000803e3d6000fd5b505050506040513d601f19601f8201168201806040525081019061031d9190610d88565b506040514281527fd2c5a6b66fbd4c28346666274dd95b77fd31d5c730deb119439b2b5482deafc99060200160405180910390a1505050505050505050565b610364610723565b61036e6000610750565b565b610378610723565b6103b88989898080601f0160208091040260200160405190810160405280939291908181526020018383808284376000920191909152506107a092505050565b600155604080516020601f87018190048102820181019092528581526103fb9188919088908890819084018382808284376000920191909152506107ae92505050565b600255604080516020601f840181900481028201810190925282815261043e9185919085908590819084018382808284376000920191909152506107ae92505050565b60045561044b600061059c565b60035550506005805460ff1916600117905550505050505050565b60006104a88484848080601f0160208091040260200160405190810160405280939291908181526020018383808284376000920191909152506107a092505050565b600654604051630b3c06f560e41b8152336004820152306024820152604481018390529192506001600160a01b03169063b3c06f50906064016020604051808303816000875af1158015610500573d6000803e3d6000fd5b505050506040513d601f19601f820116820180604052508101906105249190610d88565b506040516000815233907f543ba50a5eec5e6178218e364b1d0f396157b3c8fa278522c2cb7fd99407d4749060200160405180910390a250505050565b610569610723565b6001600160a01b03811661059357604051631e4fbdf760e01b815260006004820152602401610206565b6100bc81610750565b60006105af8263ffffffff1660046107bc565b92915050565b6000826105c9576105c6600061059c565b92505b816105db576105d8600061059c565b91505b6105e783836000610851565b9392505050565b600082610602576105ff600061059c565b92505b8161061457610611600061059c565b91505b6105e783836000610905565b60008261063457610631600061059c565b92505b8161064657610643600061059c565b91505b6105e78383600061096c565b6000826106665761066360006109d3565b92505b816106785761067560006109d3565b91505b6105e7838360006109f1565b60006105af826fffffffffffffffffffffffffffffffff1660066107bc565b6000836106b7576106b460006109d3565b93505b826106c9576106c66000610684565b92505b816106db576106d86000610684565b91505b6106e6848484610a58565b949350505050565b600083610702576106ff60006109d3565b93505b8261071457610711600061059c565b92505b816106db576106d8600061059c565b6000546001600160a01b0316331461036e5760405163118cdaa760e01b8152336004820152602401610206565b600080546001600160a01b038381166001600160a01b0319831681178455604051919092169283917f8be0079c531659141344cd1fd0a4f28419497f9722a3daafe3b4186f6b6457e09190a35050565b60006105e783836006610af3565b60006105e783836004610af3565b600080516020610e8583398151915254604051639cd07acb60e01b8152600091600080516020610ea5833981519152916001600160a01b0390911690639cd07acb9061080e9087908790600401610dcc565b6020604051808303816000875af115801561082d573d6000803e3d6000fd5b505050506040513d601f19601f820116820180604052508101906106e69190610de0565b60008082156108655750600160f81b610869565b5060005b600080516020610e858339815191525460405163022f65e760e31b8152600080516020610ea5833981519152916001600160a01b03169063117b2f38906108b890899089908790600401610df9565b6020604051808303816000875af11580156108d7573d6000803e3d6000fd5b505050506040513d601f19601f820116820180604052508101906108fb9190610de0565b9695505050505050565b60008082156109195750600160f81b61091d565b5060005b600080516020610e8583398151915254604051631391547f60e01b8152600080516020610ea5833981519152916001600160a01b031690631391547f906108b890899089908790600401610df9565b60008082156109805750600160f81b610984565b5060005b600080516020610e8583398151915254604051637210768160e01b8152600080516020610ea5833981519152916001600160a01b0316906372107681906108b890899089908790600401610df9565b60006105af826109e45760006109e7565b60015b60ff1660006107bc565b6000808215610a055750600160f81b610a09565b5060005b600080516020610e858339815191525460405163d99882d560e01b8152600080516020610ea5833981519152916001600160a01b03169063d99882d5906108b890899089908790600401610df9565b600080600080516020610ea58339815191526001810154604051637702dcff60e01b81526004810188905260248101879052604481018690529192506001600160a01b031690637702dcff906064016020604051808303816000875af1158015610ac6573d6000803e3d6000fd5b505050506040513d601f19601f82011682018060405250810190610aea9190610de0565b95945050505050565b600080516020610e858339815191525460405163045fc19560e11b8152600091600080516020610ea5833981519152916001600160a01b03909116906308bf832a90610b49908890339089908990600401610e19565b6020604051808303816000875af1158015610b68573d6000803e3d6000fd5b505050506040513d601f19601f82011682018060405250810190610b8c9190610de0565b8154604051630f8e573b60e21b8152600481018390523360248201529193506001600160a01b031690633e395cec90604401600060405180830381600087803b158015610bd857600080fd5b505af1158015610bec573d6000803e3d6000fd5b50505050509392505050565b600060208284031215610c0a57600080fd5b5035919050565b60008083601f840112610c2357600080fd5b50813567ffffffffffffffff811115610c3b57600080fd5b602083019150836020828501011115610c5357600080fd5b9250929050565b600080600080600080600080600060c08a8c031215610c7857600080fd5b8935985060208a013567ffffffffffffffff80821115610c9757600080fd5b610ca38d838e01610c11565b909a50985060408c0135975060608c0135915080821115610cc357600080fd5b610ccf8d838e01610c11565b909750955060808c0135945060a08c0135915080821115610cef57600080fd5b50610cfc8c828d01610c11565b915080935050809150509295985092959850929598565b600080600060408486031215610d2857600080fd5b83359250602084013567ffffffffffffffff811115610d4657600080fd5b610d5286828701610c11565b9497909650939450505050565b600060208284031215610d7157600080fd5b81356001600160a01b03811681146105e757600080fd5b600060208284031215610d9a57600080fd5b815180151581146105e757600080fd5b60548110610dc857634e487b7160e01b600052602160045260246000fd5b9052565b828152604081016105e76020830184610daa565b600060208284031215610df257600080fd5b5051919050565b92835260208301919091526001600160f81b031916604082015260600190565b8481526000602060018060a01b038616602084015260806040840152845180608085015260005b81811015610e5c5786810183015185820160a001528201610e40565b50600060a0828601015260a0601f19601f83011685010192505050610aea6060830184610daa56fe9e7b61f58c47dc699ac88507c4f5bb9f121c03808c5676a8078fe583e46497019e7b61f58c47dc699ac88507c4f5bb9f121c03808c5676a8078fe583e4649700a2646970667358221220f483fd79a6379dbc7c3d82194e135a7611e9fc8dcd347cdb054a3ceae595d6fc64736f6c63430008180033",
  "linkReferences": {},
  "deployedLinkReferences": {}
}