{
  "_format": "hh-sol-artifact-1",
  "contractName": "MockDEX",
  "sourceName": "contracts/MockDEX.sol",
  "abi": [
    {
      "inputs": [],
      "name": "RATE",
      "outputs": [
        {
          "internalType": "uint256",
          "name": "",
          "type": "uint256"
        }
      ],
      "stateMutability": "view",
      "type": "function"
    },
    {
      "inputs": [
        {
          "internalType": "address",
          "name": "tokenIn",
          "type": "address"
        },
        {
          "internalType": "address",
          "name": "tokenOut",
          "type": "address"
        }
      ],
      "name": "getPrice",
      "outputs": [
        {
          "internalType": "uint256",
          "name": "",
          "type": "uint256"
        }
      ],
      "stateMutability": "view",
      "type": "function"
    },
    {
      "inputs": [
        {
          "internalType": "address",
          "name": "tokenIn",
          "type": "address"
        },
        {
          "internalType": "address",
          "name": "tokenOut",
          "type": "address"
        },
        {
          "internalType": "uint256",
          "name": "amountIn",
          "type": "uint256"
        }
      ],
      "name": "swap",
      "outputs": [
        {
          "internalType": "uint256",
          "name": "amountOut",
          "type": "uint256"
        }
      ],
      "stateMutability": "nonpayable",
      "type": "function"
    }
  ],
  "bytecode": "0x608060405234801561001057600080fd5b50610297806100206000396000f3fe608060405234801561001057600080fd5b50600436106100415760003560e01c8063664e970414610046578063ac41865a14610060578063df791e5014610073575b600080fd5b61004e606481565b60405190815260200160405180910390f35b61004e61006e3660046101ab565b610086565b61004e6100813660046101de565b61008f565b60645b92915050565b6040516323b872dd60e01b8152336004820152306024820152604481018290526000906001600160a01b038516906323b872dd906064016020604051808303816000875af11580156100e5573d6000803e3d6000fd5b505050506040513d601f19601f82011682018060405250810190610109919061021a565b5061011560648361023c565b60405163a9059cbb60e01b8152336004820152602481018290529091506001600160a01b0384169063a9059cbb906044016020604051808303816000875af1925050508015610181575060408051601f3d908101601f1916820190925261017e9181019061021a565b60015b1561018857505b9392505050565b80356001600160a01b03811681146101a657600080fd5b919050565b600080604083850312156101be57600080fd5b6101c78361018f565b91506101d56020840161018f565b90509250929050565b6000806000606084860312156101f357600080fd5b6101fc8461018f565b925061020a6020850161018f565b9150604084013590509250925092565b60006020828403121561022c57600080fd5b8151801515811461018857600080fd5b808202811582820484141761008957634e487b7160e01b600052601160045260246000fdfea26469706673582212201eb409d203c05e4170d0db76546616eb9bec70ec413d32765bce719449824de964736f6c63430008180033",
  "linkReferences": {},
  "deployedLinkReferences": {}
}